{
  "address": "0x27Cf38dCb8559aE18d3e1C647b9cc4eCE46F93a3",
  "abi": [
    {
      "inputs": [
        {
          "internalType": "address",
          "name": "exampleExternalContractAddress",
          "type": "address"
        }
      ],
      "stateMutability": "nonpayable",
      "type": "constructor"
    },
    {
      "anonymous": false,
      "inputs": [
        {
          "indexed": false,
          "internalType": "address",
          "name": "",
          "type": "address"
        },
        {
          "indexed": false,
          "internalType": "uint256",
          "name": "",
          "type": "uint256"
        }
      ],
      "name": "Stake",
      "type": "event"
    },
    {
      "inputs": [
        {
          "internalType": "address",
          "name": "",
          "type": "address"
        }
      ],
      "name": "balances",
      "outputs": [
        {
          "internalType": "uint256",
          "name": "",
          "type": "uint256"
        }
      ],
      "stateMutability": "view",
      "type": "function"
    },
    {
      "inputs": [],
      "name": "deadline",
      "outputs": [
        {
          "internalType": "uint256",
          "name": "",
          "type": "uint256"
        }
      ],
      "stateMutability": "view",
      "type": "function"
    },
    {
      "inputs": [],
      "name": "exampleExternalContract",
      "outputs": [
        {
          "internalType": "contract ExampleExternalContract",
          "name": "",
          "type": "address"
        }
      ],
      "stateMutability": "view",
      "type": "function"
    },
    {
      "inputs": [],
      "name": "execute",
      "outputs": [],
      "stateMutability": "nonpayable",
      "type": "function"
    },
    {
      "inputs": [],
      "name": "openForWithdraw",
      "outputs": [
        {
          "internalType": "bool",
          "name": "",
          "type": "bool"
        }
      ],
      "stateMutability": "view",
      "type": "function"
    },
    {
      "inputs": [],
      "name": "stake",
      "outputs": [],
      "stateMutability": "payable",
      "type": "function"
    },
    {
      "inputs": [],
      "name": "threshold",
      "outputs": [
        {
          "internalType": "uint256",
          "name": "",
          "type": "uint256"
        }
      ],
      "stateMutability": "view",
      "type": "function"
    },
    {
      "inputs": [],
      "name": "timeLeft",
      "outputs": [
        {
          "internalType": "uint256",
          "name": "",
          "type": "uint256"
        }
      ],
      "stateMutability": "view",
      "type": "function"
    },
    {
      "inputs": [],
      "name": "withdraw",
      "outputs": [],
      "stateMutability": "nonpayable",
      "type": "function"
    },
    {
      "stateMutability": "payable",
      "type": "receive"
    }
  ],
  "transactionHash": "0x1e04b8e5e1b3021c8d211633014be687f4ba7425dec4767178432a01aa41a9d3",
  "args": [
    "0x8C6a78f8897CceBe7c8c70A676483a1A12FD7BF5"
  ],
  "numDeployments": 1,
  "solcInputHash": "e1cde8562e24ac5c47bf9dccb8a6b468",
  "bytecode": "0x6080604052610011426203f48061009c565b60025534801561002057600080fd5b5060405161068e38038061068e83398101604081905261003f9161006e565b600080546001600160a01b0319166001600160a01b03929092169190911790556003805460ff191690556100c0565b60006020828403121561007f578081fd5b81516001600160a01b0381168114610095578182fd5b9392505050565b600082198211156100bb57634e487b7160e01b81526011600452602481fd5b500190565b6105bf806100cf6000396000f3fe60806040526004361061008a5760003560e01c80633ccfd60b116100595780633ccfd60b1461012f57806342cde4e81461014457806361461954146101605780639876a643146101755780639f75f2271461019f57600080fd5b80631300a6d1146100ba57806327e235e3146100e257806329dcb0cf1461010f5780633a4b66f11461012557600080fd5b366100b55733600090815260016020526040812080543492906100ae908490610544565b9091555050005b600080fd5b3480156100c657600080fd5b506100cf6101d7565b6040519081526020015b60405180910390f35b3480156100ee57600080fd5b506100cf6100fd3660046104f6565b60016020526000908152604090205481565b34801561011b57600080fd5b506100cf60025481565b61012d6101fc565b005b34801561013b57600080fd5b5061012d61025a565b34801561015057600080fd5b506100cf670de0b6b3a764000081565b34801561016c57600080fd5b5061012d61039e565b34801561018157600080fd5b5060035461018f9060ff1681565b60405190151581526020016100d9565b3480156101ab57600080fd5b506000546101bf906001600160a01b031681565b6040516001600160a01b0390911681526020016100d9565b60006002544210156101f657426002546101f1919061055c565b905090565b50600090565b336000908152600160205260408120805434929061021b908490610544565b9091555050604080513381523460208201527febedb8b3c678666e7f36970bc8f57abf6d8fa2e828c0da91ea5b75bf68ed101a910160405180910390a1565b60008054906101000a90046001600160a01b03166001600160a01b0316639d9a7fe96040518163ffffffff1660e01b815260040160206040518083038186803b1580156102a657600080fd5b505afa1580156102ba573d6000803e3d6000fd5b505050506040513d601f19601f820116820180604052508101906102de9190610524565b156103275760405162461bcd60e51b81526020600482015260146024820152735468726573686f6c6420636f6d706c657465642160601b60448201526064015b60405180910390fd5b60035460ff1615156001141561039c5733600081815260016020526040808220549051909181818185875af1925050503d8060008114610383576040519150601f19603f3d011682016040523d82523d6000602084013e610388565b606091505b505033600090815260016020526040812055505b565b60008054906101000a90046001600160a01b03166001600160a01b0316639d9a7fe96040518163ffffffff1660e01b815260040160206040518083038186803b1580156103ea57600080fd5b505afa1580156103fe573d6000803e3d6000fd5b505050506040513d601f19601f820116820180604052508101906104229190610524565b156104665760405162461bcd60e51b81526020600482015260146024820152735468726573686f6c6420636f6d706c657465642160601b604482015260640161031e565b600254421061039c57670de0b6b3a764000047106104e75760008054906101000a90046001600160a01b03166001600160a01b031663522e1177476040518263ffffffff1660e01b81526004016000604051808303818588803b1580156104cc57600080fd5b505af11580156104e0573d6000803e3d6000fd5b5050505050565b6003805460ff19166001179055565b600060208284031215610507578081fd5b81356001600160a01b038116811461051d578182fd5b9392505050565b600060208284031215610535578081fd5b8151801515811461051d578182fd5b6000821982111561055757610557610573565b500190565b60008282101561056e5761056e610573565b500390565b634e487b7160e01b600052601160045260246000fdfea2646970667358221220df7e61a138f5100940a62a1ef182dea7c8d9324d93d4da4b2c8800bf0810d9e864736f6c63430008040033",
  "devdoc": {
    "kind": "dev",
    "methods": {},
    "version": 1
  },
  "userdoc": {
    "kind": "user",
    "methods": {},
    "version": 1
  },
  "storageLayout": {
    "storage": [
      {
        "astId": 19,
        "contract": "contracts/Staker.sol:Staker",
        "label": "exampleExternalContract",
        "offset": 0,
        "slot": "0",
        "type": "t_contract(ExampleExternalContract)12"
      },
      {
        "astId": 23,
        "contract": "contracts/Staker.sol:Staker",
        "label": "balances",
        "offset": 0,
        "slot": "1",
        "type": "t_mapping(t_address,t_uint256)"
      },
      {
        "astId": 32,
        "contract": "contracts/Staker.sol:Staker",
        "label": "deadline",
        "offset": 0,
        "slot": "2",
        "type": "t_uint256"
      },
      {
        "astId": 34,
        "contract": "contracts/Staker.sol:Staker",
        "label": "openForWithdraw",
        "offset": 0,
        "slot": "3",
        "type": "t_bool"
      }
    ],
    "types": {
      "t_address": {
        "encoding": "inplace",
        "label": "address",
        "numberOfBytes": "20"
      },
      "t_bool": {
        "encoding": "inplace",
        "label": "bool",
        "numberOfBytes": "1"
      },
      "t_contract(ExampleExternalContract)12": {
        "encoding": "inplace",
        "label": "contract ExampleExternalContract",
        "numberOfBytes": "20"
      },
      "t_mapping(t_address,t_uint256)": {
        "encoding": "mapping",
        "key": "t_address",
        "label": "mapping(address => uint256)",
        "numberOfBytes": "32",
        "value": "t_uint256"
      },
      "t_uint256": {
        "encoding": "inplace",
        "label": "uint256",
        "numberOfBytes": "32"
      }
    }
  }
}